{
  "contractName": "MainContract",
  "abi": [
    {
      "inputs": [],
      "stateMutability": "nonpayable",
      "type": "constructor"
    },
    {
      "anonymous": false,
      "inputs": [
        {
          "indexed": true,
          "internalType": "uint256",
          "name": "surgeryId",
          "type": "uint256"
        },
        {
          "indexed": false,
          "internalType": "address",
          "name": "receiver",
          "type": "address"
        }
      ],
      "name": "AccessUpdate",
      "type": "event"
    },
    {
      "anonymous": false,
      "inputs": [
        {
          "indexed": true,
          "internalType": "address",
          "name": "producer",
          "type": "address"
        },
        {
          "indexed": true,
          "internalType": "uint256",
          "name": "medicineId",
          "type": "uint256"
        }
      ],
      "name": "Production",
      "type": "event"
    },
    {
      "anonymous": false,
      "inputs": [
        {
          "indexed": true,
          "internalType": "uint256",
          "name": "surgeryId",
          "type": "uint256"
        },
        {
          "indexed": false,
          "internalType": "address",
          "name": "patient",
          "type": "address"
        },
        {
          "indexed": false,
          "internalType": "address",
          "name": "surgeon",
          "type": "address"
        },
        {
          "indexed": false,
          "internalType": "enum MainContract.State",
          "name": "updatedState",
          "type": "uint8"
        }
      ],
      "name": "SurgeryUpdate",
      "type": "event"
    },
    {
      "anonymous": false,
      "inputs": [
        {
          "indexed": true,
          "internalType": "address",
          "name": "from",
          "type": "address"
        },
        {
          "indexed": true,
          "internalType": "address",
          "name": "to",
          "type": "address"
        },
        {
          "indexed": false,
          "internalType": "uint256",
          "name": "value",
          "type": "uint256"
        }
      ],
      "name": "Transfer",
      "type": "event"
    },
    {
      "inputs": [],
      "name": "_decimals",
      "outputs": [
        {
          "internalType": "uint8",
          "name": "",
          "type": "uint8"
        }
      ],
      "stateMutability": "view",
      "type": "function"
    },
    {
      "inputs": [],
      "name": "_name",
      "outputs": [
        {
          "internalType": "string",
          "name": "",
          "type": "string"
        }
      ],
      "stateMutability": "view",
      "type": "function"
    },
    {
      "inputs": [],
      "name": "_symbol",
      "outputs": [
        {
          "internalType": "string",
          "name": "",
          "type": "string"
        }
      ],
      "stateMutability": "view",
      "type": "function"
    },
    {
      "inputs": [],
      "name": "totalSupply",
      "outputs": [
        {
          "internalType": "uint256",
          "name": "",
          "type": "uint256"
        }
      ],
      "stateMutability": "view",
      "type": "function"
    },
    {
      "inputs": [
        {
          "internalType": "address",
          "name": "owner_",
          "type": "address"
        }
      ],
      "name": "balanceOf",
      "outputs": [
        {
          "internalType": "uint256",
          "name": "",
          "type": "uint256"
        }
      ],
      "stateMutability": "view",
      "type": "function"
    },
    {
      "inputs": [
        {
          "internalType": "address",
          "name": "receiver",
          "type": "address"
        },
        {
          "internalType": "uint256",
          "name": "numTokens",
          "type": "uint256"
        }
      ],
      "name": "transfer",
      "outputs": [
        {
          "internalType": "bool",
          "name": "",
          "type": "bool"
        }
      ],
      "stateMutability": "nonpayable",
      "type": "function"
    },
    {
      "inputs": [
        {
          "internalType": "uint256",
          "name": "medicineId",
          "type": "uint256"
        },
        {
          "internalType": "string",
          "name": "name",
          "type": "string"
        }
      ],
      "name": "importMedicine",
      "outputs": [],
      "stateMutability": "nonpayable",
      "type": "function"
    },
    {
      "inputs": [
        {
          "internalType": "uint256",
          "name": "surgeryId",
          "type": "uint256"
        },
        {
          "internalType": "address",
          "name": "receiver",
          "type": "address"
        }
      ],
      "name": "grantAccess",
      "outputs": [],
      "stateMutability": "nonpayable",
      "type": "function"
    },
    {
      "inputs": [
        {
          "internalType": "address",
          "name": "surgeon",
          "type": "address"
        },
        {
          "internalType": "uint256",
          "name": "payment",
          "type": "uint256"
        }
      ],
      "name": "propose",
      "outputs": [],
      "stateMutability": "nonpayable",
      "type": "function"
    },
    {
      "inputs": [
        {
          "internalType": "uint256",
          "name": "surgeryId",
          "type": "uint256"
        },
        {
          "internalType": "uint256",
          "name": "payment",
          "type": "uint256"
        },
        {
          "internalType": "uint256",
          "name": "medicineId",
          "type": "uint256"
        },
        {
          "internalType": "string",
          "name": "information",
          "type": "string"
        }
      ],
      "name": "schedule",
      "outputs": [],
      "stateMutability": "nonpayable",
      "type": "function"
    },
    {
      "inputs": [
        {
          "internalType": "uint256",
          "name": "surgeryId",
          "type": "uint256"
        }
      ],
      "name": "deposit",
      "outputs": [],
      "stateMutability": "nonpayable",
      "type": "function"
    },
    {
      "inputs": [
        {
          "internalType": "uint256",
          "name": "surgeryId",
          "type": "uint256"
        },
        {
          "internalType": "string",
          "name": "information",
          "type": "string"
        }
      ],
      "name": "execution",
      "outputs": [],
      "stateMutability": "nonpayable",
      "type": "function"
    },
    {
      "inputs": [
        {
          "internalType": "uint256",
          "name": "surgeryId",
          "type": "uint256"
        },
        {
          "internalType": "string",
          "name": "review",
          "type": "string"
        }
      ],
      "name": "writeReview",
      "outputs": [],
      "stateMutability": "nonpayable",
      "type": "function"
    },
    {
      "inputs": [
        {
          "internalType": "uint256",
          "name": "surgeryId",
          "type": "uint256"
        }
      ],
      "name": "complete",
      "outputs": [],
      "stateMutability": "nonpayable",
      "type": "function"
    },
    {
      "inputs": [
        {
          "internalType": "uint256",
          "name": "surgeryId",
          "type": "uint256"
        }
      ],
      "name": "viewSurgeryDetail",
      "outputs": [
        {
          "components": [
            {
              "internalType": "enum MainContract.State",
              "name": "surgeryState",
              "type": "uint8"
            },
            {
              "internalType": "address",
              "name": "surgeon",
              "type": "address"
            },
            {
              "internalType": "address",
              "name": "patient",
              "type": "address"
            },
            {
              "internalType": "uint256",
              "name": "payment",
              "type": "uint256"
            },
            {
              "internalType": "uint256",
              "name": "medicineId",
              "type": "uint256"
            },
            {
              "internalType": "string",
              "name": "information",
              "type": "string"
            },
            {
              "internalType": "string",
              "name": "review",
              "type": "string"
            }
          ],
          "internalType": "struct MainContract.Surgery",
          "name": "",
          "type": "tuple"
        }
      ],
      "stateMutability": "view",
      "type": "function"
    },
    {
      "inputs": [
        {
          "internalType": "uint256",
          "name": "surgeryId",
          "type": "uint256"
        }
      ],
      "name": "viewSurgery",
      "outputs": [
        {
          "internalType": "uint256",
          "name": "",
          "type": "uint256"
        },
        {
          "internalType": "uint256",
          "name": "",
          "type": "uint256"
        },
        {
          "internalType": "string",
          "name": "",
          "type": "string"
        },
        {
          "internalType": "string",
          "name": "",
          "type": "string"
        }
      ],
      "stateMutability": "view",
      "type": "function"
    },
    {
      "inputs": [
        {
          "internalType": "address",
          "name": "surgeon",
          "type": "address"
        }
      ],
      "name": "viewSurgeon",
      "outputs": [
        {
          "internalType": "uint256[]",
          "name": "",
          "type": "uint256[]"
        }
      ],
      "stateMutability": "view",
      "type": "function"
    }
  ],
  "bytecode": "0x60806040526298968060005534801561001757600080fd5b50600054600160003373ffffffffffffffffffffffffffffffffffffffff1673ffffffffffffffffffffffffffffffffffffffff1681526020019081526020016000208190555060016003819055506128a8806100756000396000f3fe608060405234801561001057600080fd5b506004361061010b5760003560e01c8063701003d5116100a2578063a9059cbb11610071578063a9059cbb146102b7578063b09f1266146102e7578063b5275b3214610305578063b6b55f2514610321578063d28d88521461033d5761010b565b8063701003d51461023357806370a082311461024f5780637275e85d1461027f578063971d852f1461029b5761010b565b80634c61d04c116100de5780634c61d04c14610198578063589de5df146101cb578063613284c6146101e757806365dd152c146102175761010b565b806318160ddd14610110578063195b57781461012e57806331a56e791461014a57806332424aa31461017a575b600080fd5b61011861035b565b6040516101259190611dbb565b60405180910390f35b61014860048036038101906101439190611f5c565b610364565b005b610164600480360381019061015f9190611fb8565b6104da565b60405161017191906121d7565b60405180910390f35b61018261078f565b60405161018f9190612215565b60405180910390f35b6101b260048036038101906101ad9190611fb8565b610794565b6040516101c2949392919061227a565b60405180910390f35b6101e560048036038101906101e091906122f9565b610a33565b005b61020160048036038101906101fc9190612339565b610d1b565b60405161020e9190612415565b60405180910390f35b610231600480360381019061022c9190612437565b611023565b005b61024d60048036038101906102489190611f5c565b61117c565b005b61026960048036038101906102649190612339565b611332565b6040516102769190611dbb565b60405180910390f35b61029960048036038101906102949190612477565b61137b565b005b6102b560048036038101906102b09190611fb8565b611545565b005b6102d160048036038101906102cc91906122f9565b6116fb565b6040516102de9190612515565b60405180910390f35b6102ef6118e2565b6040516102fc9190612530565b60405180910390f35b61031f600480360381019061031a9190611f5c565b61191b565b005b61033b60048036038101906103369190611fb8565b6119f3565b005b610345611bf8565b6040516103529190612530565b60405180910390f35b60008054905090565b60006004600084815260200190815260200160002090508060000160019054906101000a900473ffffffffffffffffffffffffffffffffffffffff1673ffffffffffffffffffffffffffffffffffffffff163373ffffffffffffffffffffffffffffffffffffffff1614801561040f5750600260058111156103e9576103e8611fe5565b5b8160000160009054906101000a900460ff16600581111561040d5761040c611fe5565b5b145b61041857600080fd5b81816004019080519060200190610430929190611c84565b5060038160000160006101000a81548160ff0219169083600581111561045957610458611fe5565b5b02179055506003600081548092919061047190612581565b919050557fdb63b1b5ef2621454f711a6957303c1f6c632e887a5e7699dcb3424c2dd7d2148260010160009054906101000a900473ffffffffffffffffffffffffffffffffffffffff163360036040516104cd939291906125e7565b60405180910390a2505050565b6104e2611d0a565b600560003373ffffffffffffffffffffffffffffffffffffffff1673ffffffffffffffffffffffffffffffffffffffff1681526020019081526020016000206000600354815260200190815260200160002060009054906101000a900460ff1661054b57600080fd5b600460008381526020019081526020016000206040518060e00160405290816000820160009054906101000a900460ff16600581111561058e5761058d611fe5565b5b60058111156105a05761059f611fe5565b5b81526020016000820160019054906101000a900473ffffffffffffffffffffffffffffffffffffffff1673ffffffffffffffffffffffffffffffffffffffff1673ffffffffffffffffffffffffffffffffffffffff1681526020016001820160009054906101000a900473ffffffffffffffffffffffffffffffffffffffff1673ffffffffffffffffffffffffffffffffffffffff1673ffffffffffffffffffffffffffffffffffffffff16815260200160028201548152602001600382015481526020016004820180546106749061264d565b80601f01602080910402602001604051908101604052809291908181526020018280546106a09061264d565b80156106ed5780601f106106c2576101008083540402835291602001916106ed565b820191906000526020600020905b8154815290600101906020018083116106d057829003601f168201915b505050505081526020016005820180546107069061264d565b80601f01602080910402602001604051908101604052809291908181526020018280546107329061264d565b801561077f5780601f106107545761010080835404028352916020019161077f565b820191906000526020600020905b81548152906001019060200180831161076257829003601f168201915b5050505050815250509050919050565b601281565b6000806060806000600460008781526020019081526020016000206040518060e00160405290816000820160009054906101000a900460ff1660058111156107df576107de611fe5565b5b60058111156107f1576107f0611fe5565b5b81526020016000820160019054906101000a900473ffffffffffffffffffffffffffffffffffffffff1673ffffffffffffffffffffffffffffffffffffffff1673ffffffffffffffffffffffffffffffffffffffff1681526020016001820160009054906101000a900473ffffffffffffffffffffffffffffffffffffffff1673ffffffffffffffffffffffffffffffffffffffff1673ffffffffffffffffffffffffffffffffffffffff16815260200160028201548152602001600382015481526020016004820180546108c59061264d565b80601f01602080910402602001604051908101604052809291908181526020018280546108f19061264d565b801561093e5780601f106109135761010080835404028352916020019161093e565b820191906000526020600020905b81548152906001019060200180831161092157829003601f168201915b505050505081526020016005820180546109579061264d565b80601f01602080910402602001604051908101604052809291908181526020018280546109839061264d565b80156109d05780601f106109a5576101008083540402835291602001916109d0565b820191906000526020600020905b8154815290600101906020018083116109b357829003601f168201915b50505050508152505090506005808111156109ee576109ed611fe5565b5b81600001516005811115610a0557610a04611fe5565b5b14610a0f57600080fd5b806060015181608001518260a001518360c001519450945094509450509193509193565b60006040518060e0016040528060006005811115610a5457610a53611fe5565b5b81526020018473ffffffffffffffffffffffffffffffffffffffff1681526020013373ffffffffffffffffffffffffffffffffffffffff168152602001838152602001600081526020016040518060200160405280600081525081526020016040518060200160405280600081525081525090508060046000600354815260200190815260200160002060008201518160000160006101000a81548160ff02191690836005811115610b0957610b08611fe5565b5b021790555060208201518160000160016101000a81548173ffffffffffffffffffffffffffffffffffffffff021916908373ffffffffffffffffffffffffffffffffffffffff16021790555060408201518160010160006101000a81548173ffffffffffffffffffffffffffffffffffffffff021916908373ffffffffffffffffffffffffffffffffffffffff160217905550606082015181600201556080820151816003015560a0820151816004019080519060200190610bcc929190611c84565b5060c0820151816005019080519060200190610be9929190611c84565b509050506001600560003373ffffffffffffffffffffffffffffffffffffffff1673ffffffffffffffffffffffffffffffffffffffff1681526020019081526020016000206000600354815260200190815260200160002060006101000a81548160ff0219169083151502179055506001600560008573ffffffffffffffffffffffffffffffffffffffff1673ffffffffffffffffffffffffffffffffffffffff1681526020019081526020016000206000600354815260200190815260200160002060006101000a81548160ff02191690831515021790555060036000815480929190610cd690612581565b919050557fdb63b1b5ef2621454f711a6957303c1f6c632e887a5e7699dcb3424c2dd7d21433856000604051610d0e939291906125e7565b60405180910390a2505050565b6060806000805b6003548111611018576000600460008381526020019081526020016000206040518060e00160405290816000820160009054906101000a900460ff166005811115610d7057610d6f611fe5565b5b6005811115610d8257610d81611fe5565b5b81526020016000820160019054906101000a900473ffffffffffffffffffffffffffffffffffffffff1673ffffffffffffffffffffffffffffffffffffffff1673ffffffffffffffffffffffffffffffffffffffff1681526020016001820160009054906101000a900473ffffffffffffffffffffffffffffffffffffffff1673ffffffffffffffffffffffffffffffffffffffff1673ffffffffffffffffffffffffffffffffffffffff1681526020016002820154815260200160038201548152602001600482018054610e569061264d565b80601f0160208091040260200160405190810160405280929190818152602001828054610e829061264d565b8015610ecf5780601f10610ea457610100808354040283529160200191610ecf565b820191906000526020600020905b815481529060010190602001808311610eb257829003601f168201915b50505050508152602001600582018054610ee89061264d565b80601f0160208091040260200160405190810160405280929190818152602001828054610f149061264d565b8015610f615780601f10610f3657610100808354040283529160200191610f61565b820191906000526020600020905b815481529060010190602001808311610f4457829003601f168201915b50505050508152505090508573ffffffffffffffffffffffffffffffffffffffff16816020015173ffffffffffffffffffffffffffffffffffffffff16148015610fd25750600580811115610fb957610fb8611fe5565b5b81600001516005811115610fd057610fcf611fe5565b5b145b156110045781848480610fe490612581565b955081518110610ff757610ff661267e565b5b6020026020010181815250505b50808061101090612581565b915050610d22565b508192505050919050565b60006004600084815260200190815260200160002090508060010160009054906101000a900473ffffffffffffffffffffffffffffffffffffffff1673ffffffffffffffffffffffffffffffffffffffff163373ffffffffffffffffffffffffffffffffffffffff161480156110cd57506005808111156110a7576110a6611fe5565b5b8160000160009054906101000a900460ff1660058111156110cb576110ca611fe5565b5b145b6110d657600080fd5b6001600560008473ffffffffffffffffffffffffffffffffffffffff1673ffffffffffffffffffffffffffffffffffffffff168152602001908152602001600020600085815260200190815260200160002060006101000a81548160ff021916908315150217905550827f351ab1eef443adece520576f2cd45443c9b99b45ce1158d93604ac36f594f10b8360405161116f91906126ad565b60405180910390a2505050565b60006004600084815260200190815260200160002090508060010160009054906101000a900473ffffffffffffffffffffffffffffffffffffffff1673ffffffffffffffffffffffffffffffffffffffff163373ffffffffffffffffffffffffffffffffffffffff1614801561126757506003600581111561120157611200611fe5565b5b8160000160009054906101000a900460ff16600581111561122557611224611fe5565b5b14806112665750600460058111156112405761123f611fe5565b5b8160000160009054906101000a900460ff16600581111561126457611263611fe5565b5b145b5b61127057600080fd5b81816005019080519060200190611288929190611c84565b5060048160000160006101000a81548160ff021916908360058111156112b1576112b0611fe5565b5b0217905550600360008154809291906112c990612581565b919050557fdb63b1b5ef2621454f711a6957303c1f6c632e887a5e7699dcb3424c2dd7d214338360000160019054906101000a900473ffffffffffffffffffffffffffffffffffffffff166004604051611325939291906125e7565b60405180910390a2505050565b6000600160008373ffffffffffffffffffffffffffffffffffffffff1673ffffffffffffffffffffffffffffffffffffffff168152602001908152602001600020549050919050565b60006004600086815260200190815260200160002090508060000160019054906101000a900473ffffffffffffffffffffffffffffffffffffffff1673ffffffffffffffffffffffffffffffffffffffff163373ffffffffffffffffffffffffffffffffffffffff16148015611466575060006005811115611400576113ff611fe5565b5b8160000160009054906101000a900460ff16600581111561142457611423611fe5565b5b148061146557506001600581111561143f5761143e611fe5565b5b8160000160009054906101000a900460ff16600581111561146357611462611fe5565b5b145b5b61146f57600080fd5b82816003018190555081816004019080519060200190611490929190611c84565b5083816002018190555060018160000160006101000a81548160ff021916908360058111156114c2576114c1611fe5565b5b0217905550600360008154809291906114da90612581565b919050557fdb63b1b5ef2621454f711a6957303c1f6c632e887a5e7699dcb3424c2dd7d2148260010160009054906101000a900473ffffffffffffffffffffffffffffffffffffffff16336001604051611536939291906125e7565b60405180910390a25050505050565b60006004600083815260200190815260200160002090508060000160019054906101000a900473ffffffffffffffffffffffffffffffffffffffff1673ffffffffffffffffffffffffffffffffffffffff163373ffffffffffffffffffffffffffffffffffffffff161480156115f05750600460058111156115ca576115c9611fe5565b5b8160000160009054906101000a900460ff1660058111156115ee576115ed611fe5565b5b145b6115f957600080fd5b60058160000160006101000a81548160ff0219169083600581111561162157611620611fe5565b5b02179055508060020154600160003373ffffffffffffffffffffffffffffffffffffffff1673ffffffffffffffffffffffffffffffffffffffff168152602001908152602001600020600082825461167991906126c8565b925050819055506003600081548092919061169390612581565b919050557fdb63b1b5ef2621454f711a6957303c1f6c632e887a5e7699dcb3424c2dd7d2148260010160009054906101000a900473ffffffffffffffffffffffffffffffffffffffff163360056040516116ef939291906125e7565b60405180910390a25050565b6000600160003373ffffffffffffffffffffffffffffffffffffffff1673ffffffffffffffffffffffffffffffffffffffff1681526020019081526020016000205482111561174957600080fd5b61179b82600160003373ffffffffffffffffffffffffffffffffffffffff1673ffffffffffffffffffffffffffffffffffffffff16815260200190815260200160002054611c3190919063ffffffff16565b600160003373ffffffffffffffffffffffffffffffffffffffff1673ffffffffffffffffffffffffffffffffffffffff1681526020019081526020016000208190555061183082600160008673ffffffffffffffffffffffffffffffffffffffff1673ffffffffffffffffffffffffffffffffffffffff16815260200190815260200160002054611c5890919063ffffffff16565b600160008573ffffffffffffffffffffffffffffffffffffffff1673ffffffffffffffffffffffffffffffffffffffff168152602001908152602001600020819055508273ffffffffffffffffffffffffffffffffffffffff163373ffffffffffffffffffffffffffffffffffffffff167fddf252ad1be2c89b69c2b068fc378daa952ba7f163c4a11628f55a4df523b3ef846040516118d09190611dbb565b60405180910390a36001905092915050565b6040518060400160405280600381526020017f434254000000000000000000000000000000000000000000000000000000000081525081565b60405160200161192a9061274f565b604051602081830303815290604052805190602001206002600084815260200190815260200160002060405160200161196391906127f8565b604051602081830303815290604052805190602001200361198357600080fd5b806002600084815260200190815260200160002090805190602001906119aa929190611c84565b50813373ffffffffffffffffffffffffffffffffffffffff167f4ae23b8861751b8c0ee61eadd2e0dd957bbb179184cda30d0c6beb9122cb6e5960405160405180910390a35050565b60006004600083815260200190815260200160002090508060020154600160003373ffffffffffffffffffffffffffffffffffffffff1673ffffffffffffffffffffffffffffffffffffffff1681526020019081526020016000205410158015611aac57508060010160009054906101000a900473ffffffffffffffffffffffffffffffffffffffff1673ffffffffffffffffffffffffffffffffffffffff163373ffffffffffffffffffffffffffffffffffffffff16145b8015611aed575060016005811115611ac757611ac6611fe5565b5b8160000160009054906101000a900460ff166005811115611aeb57611aea611fe5565b5b145b611af657600080fd5b8060020154600160003373ffffffffffffffffffffffffffffffffffffffff1673ffffffffffffffffffffffffffffffffffffffff1681526020019081526020016000206000828254611b49919061280f565b9250508190555060028160000160006101000a81548160ff02191690836005811115611b7857611b77611fe5565b5b021790555060036000815480929190611b9090612581565b919050557fdb63b1b5ef2621454f711a6957303c1f6c632e887a5e7699dcb3424c2dd7d214338360000160019054906101000a900473ffffffffffffffffffffffffffffffffffffffff166002604051611bec939291906125e7565b60405180910390a25050565b6040518060400160405280601081526020017f436c65616e426561757479546f6b656e0000000000000000000000000000000081525081565b600082821115611c4457611c43612843565b5b8183611c50919061280f565b905092915050565b6000808284611c6791906126c8565b905083811015611c7a57611c79612843565b5b8091505092915050565b828054611c909061264d565b90600052602060002090601f016020900481019282611cb25760008555611cf9565b82601f10611ccb57805160ff1916838001178555611cf9565b82800160010185558215611cf9579182015b82811115611cf8578251825591602001919060010190611cdd565b5b509050611d069190611d85565b5090565b6040518060e0016040528060006005811115611d2957611d28611fe5565b5b8152602001600073ffffffffffffffffffffffffffffffffffffffff168152602001600073ffffffffffffffffffffffffffffffffffffffff168152602001600081526020016000815260200160608152602001606081525090565b5b80821115611d9e576000816000905550600101611d86565b5090565b6000819050919050565b611db581611da2565b82525050565b6000602082019050611dd06000830184611dac565b92915050565b6000604051905090565b600080fd5b600080fd5b611df381611da2565b8114611dfe57600080fd5b50565b600081359050611e1081611dea565b92915050565b600080fd5b600080fd5b6000601f19601f8301169050919050565b7f4e487b7100000000000000000000000000000000000000000000000000000000600052604160045260246000fd5b611e6982611e20565b810181811067ffffffffffffffff82111715611e8857611e87611e31565b5b80604052505050565b6000611e9b611dd6565b9050611ea78282611e60565b919050565b600067ffffffffffffffff821115611ec757611ec6611e31565b5b611ed082611e20565b9050602081019050919050565b82818337600083830152505050565b6000611eff611efa84611eac565b611e91565b905082815260208101848484011115611f1b57611f1a611e1b565b5b611f26848285611edd565b509392505050565b600082601f830112611f4357611f42611e16565b5b8135611f53848260208601611eec565b91505092915050565b60008060408385031215611f7357611f72611de0565b5b6000611f8185828601611e01565b925050602083013567ffffffffffffffff811115611fa257611fa1611de5565b5b611fae85828601611f2e565b9150509250929050565b600060208284031215611fce57611fcd611de0565b5b6000611fdc84828501611e01565b91505092915050565b7f4e487b7100000000000000000000000000000000000000000000000000000000600052602160045260246000fd5b6006811061202557612024611fe5565b5b50565b600081905061203682612014565b919050565b600061204682612028565b9050919050565b6120568161203b565b82525050565b600073ffffffffffffffffffffffffffffffffffffffff82169050919050565b60006120878261205c565b9050919050565b6120978161207c565b82525050565b6120a681611da2565b82525050565b600081519050919050565b600082825260208201905092915050565b60005b838110156120e65780820151818401526020810190506120cb565b838111156120f5576000848401525b50505050565b6000612106826120ac565b61211081856120b7565b93506121208185602086016120c8565b61212981611e20565b840191505092915050565b600060e08301600083015161214c600086018261204d565b50602083015161215f602086018261208e565b506040830151612172604086018261208e565b506060830151612185606086018261209d565b506080830151612198608086018261209d565b5060a083015184820360a08601526121b082826120fb565b91505060c083015184820360c08601526121ca82826120fb565b9150508091505092915050565b600060208201905081810360008301526121f18184612134565b905092915050565b600060ff82169050919050565b61220f816121f9565b82525050565b600060208201905061222a6000830184612206565b92915050565b600082825260208201905092915050565b600061224c826120ac565b6122568185612230565b93506122668185602086016120c8565b61226f81611e20565b840191505092915050565b600060808201905061228f6000830187611dac565b61229c6020830186611dac565b81810360408301526122ae8185612241565b905081810360608301526122c28184612241565b905095945050505050565b6122d68161207c565b81146122e157600080fd5b50565b6000813590506122f3816122cd565b92915050565b600080604083850312156123105761230f611de0565b5b600061231e858286016122e4565b925050602061232f85828601611e01565b9150509250929050565b60006020828403121561234f5761234e611de0565b5b600061235d848285016122e4565b91505092915050565b600081519050919050565b600082825260208201905092915050565b6000819050602082019050919050565b600061239e838361209d565b60208301905092915050565b6000602082019050919050565b60006123c282612366565b6123cc8185612371565b93506123d783612382565b8060005b838110156124085781516123ef8882612392565b97506123fa836123aa565b9250506001810190506123db565b5085935050505092915050565b6000602082019050818103600083015261242f81846123b7565b905092915050565b6000806040838503121561244e5761244d611de0565b5b600061245c85828601611e01565b925050602061246d858286016122e4565b9150509250929050565b6000806000806080858703121561249157612490611de0565b5b600061249f87828801611e01565b94505060206124b087828801611e01565b93505060406124c187828801611e01565b925050606085013567ffffffffffffffff8111156124e2576124e1611de5565b5b6124ee87828801611f2e565b91505092959194509250565b60008115159050919050565b61250f816124fa565b82525050565b600060208201905061252a6000830184612506565b92915050565b6000602082019050818103600083015261254a8184612241565b905092915050565b7f4e487b7100000000000000000000000000000000000000000000000000000000600052601160045260246000fd5b600061258c82611da2565b91507fffffffffffffffffffffffffffffffffffffffffffffffffffffffffffffffff82036125be576125bd612552565b5b600182019050919050565b6125d28161207c565b82525050565b6125e18161203b565b82525050565b60006060820190506125fc60008301866125c9565b61260960208301856125c9565b61261660408301846125d8565b949350505050565b7f4e487b7100000000000000000000000000000000000000000000000000000000600052602260045260246000fd5b6000600282049050600182168061266557607f821691505b6020821081036126785761267761261e565b5b50919050565b7f4e487b7100000000000000000000000000000000000000000000000000000000600052603260045260246000fd5b60006020820190506126c260008301846125c9565b92915050565b60006126d382611da2565b91506126de83611da2565b9250827fffffffffffffffffffffffffffffffffffffffffffffffffffffffffffffffff0382111561271357612712612552565b5b828201905092915050565b600081905092915050565b50565b600061273960008361271e565b915061274482612729565b600082019050919050565b600061275a8261272c565b9150819050919050565b60008190508160005260206000209050919050565b600081546127868161264d565b612790818661271e565b945060018216600081146127ab57600181146127bc576127ef565b60ff198316865281860193506127ef565b6127c585612764565b60005b838110156127e7578154818901526001820191506020810190506127c8565b838801955050505b50505092915050565b60006128048284612779565b915081905092915050565b600061281a82611da2565b915061282583611da2565b92508282101561283857612837612552565b5b828203905092915050565b7f4e487b7100000000000000000000000000000000000000000000000000000000600052600160045260246000fdfea2646970667358221220e7381f951d4c5fca4ed602a9a5fce26f5597e295d2f2489938f076e9c2c2d73e64736f6c634300080d0033",
  "immutableReferences": {},
  "source": "// SPDX-License-Identifier: MIT\npragma solidity >=0.4.22 < 0.9.0;\nimport \"./SafeMath.sol\";\n\ncontract MainContract{\n    // Variables for the token\n    using SafeMath for uint256;\n    string public constant _name = \"CleanBeautyToken\";\n    string public constant _symbol = \"CBT\";\n    uint8 public constant _decimals = 18;\n    uint256 _totalSupply = 1e7;\n    mapping(address => uint256) _balances;\n    event Transfer(address indexed from, address indexed to, uint256 value);\n\n    // Variables for the medicines\n    mapping (uint256 => string) _medicines; // Store the Medicine Info\n    event Production(address indexed producer, uint256 indexed medicineId);\n\n    // Variables for the surgeries\n    enum State {PROPOSED, SCHEDULED, CONFIRMED, EXECUTED, REVIEWED, CLOSED}\n    uint256 private _surgeryId; // A ascending number showing how many surgeries have been performed\n    event SurgeryUpdate(uint256 indexed surgeryId, address patient, address surgeon, State updatedState);\n    event AccessUpdate(uint256 indexed surgeryId, address receiver);\n\n    struct Surgery{\n        State surgeryState; // States of the surgery\n        address surgeon;\n        address patient;\n        uint256 payment; // how much the surgery cost\n        uint256 medicineId;\n        string information; // Other information for the surgery\n        string review; // Patient Review for the surgery\n    }\n    mapping (uint256 => Surgery) _surgeries; // all past and valid surgeries\n    mapping (address => mapping(uint256 => bool)) _surgeryAccess; // Keep all accessible surgeries for one user \n\n    // Methods for the tokens\n    constructor() { \n        _balances[msg.sender] = _totalSupply;\n        _surgeryId = 1;\n    }\n\n    function totalSupply() external view returns (uint256){\n        return _totalSupply;\n    }\n\n    function balanceOf(address owner_) public view returns (uint256) {\n        return _balances[owner_];\n    }\n\n    function transfer(address receiver, uint256 numTokens) public returns (bool) {\n        require(numTokens <= _balances[msg.sender]);\n        _balances[msg.sender] = _balances[msg.sender].sub(numTokens);\n        _balances[receiver] = _balances[receiver].add(numTokens);\n        emit Transfer(msg.sender, receiver, numTokens);\n        return true;\n    } \n\n    // Methods for producers\n    function importMedicine(uint256 medicineId, string memory name) public {\n        // The medicineID must be unused\n        require(keccak256(abi.encodePacked((_medicines[medicineId])))!=keccak256(abi.encodePacked(\"\")));\n        _medicines[medicineId] = name;\n        emit Production(msg.sender, medicineId);\n    }\n\n    function grantAccess(uint256 surgeryId, address receiver) public{ // The patient can grant access to other receiver, so that the doctor can view the details of previous surgeries. But he's only authorized after the surgery is closed\n        Surgery storage surgery = _surgeries[surgeryId];\n        require(msg.sender==surgery.patient&&surgery.surgeryState==State.CLOSED);\n        _surgeryAccess[receiver][surgeryId] = true;\n        emit AccessUpdate(surgeryId, receiver);\n    }\n\n    function propose(address surgeon, uint payment) public { // Patient can propose a surgery with a doctor\n        Surgery memory surgery = Surgery(State.PROPOSED, surgeon, msg.sender, payment, 0, \"\", \"\"); // The patient can propose an offer about a surgery\n        _surgeries[_surgeryId] = surgery;\n        _surgeryAccess[msg.sender][_surgeryId]=true;\n        _surgeryAccess[surgeon][_surgeryId]=true;\n        emit SurgeryUpdate(_surgeryId++, msg.sender, surgeon, State.PROPOSED); // The app should receive a event about a proposed has been set up\n    }\n\n    function schedule(uint256 surgeryId, uint payment, uint256 medicineId, string memory information) public{ // The surgeon can keep updating the surgey plan and change the information/charge about the surgery\n        Surgery storage surgery = _surgeries[surgeryId];\n        require(msg.sender==surgery.surgeon&&(surgery.surgeryState==State.PROPOSED||surgery.surgeryState==State.SCHEDULED));\n        surgery.medicineId = medicineId;\n        surgery.information = information;\n        surgery.payment = payment;\n        surgery.surgeryState = State.SCHEDULED;\n        emit SurgeryUpdate(_surgeryId++, surgery.patient, msg.sender, State.SCHEDULED);\n    }\n\n    function deposit(uint256 surgeryId) public{ // When the surgery is scheduled by the doctor, the user confirm it by depositing the tokens\n        Surgery storage surgery = _surgeries[surgeryId];\n        // If the patient is happy with doctor's idea and payment, he can proceed the surgery by depositing the payment\n        require(_balances[msg.sender]>=surgery.payment&&msg.sender==surgery.patient&&surgery.surgeryState==State.SCHEDULED); \n        _balances[msg.sender] -= surgery.payment;\n        surgery.surgeryState = State.CONFIRMED;\n        emit SurgeryUpdate(_surgeryId++, msg.sender, surgery.surgeon, State.CONFIRMED);\n    }\n\n    function execution(uint256 surgeryId, string memory information)public {\n        Surgery storage surgery = _surgeries[surgeryId];\n        // After the confirmation, the doctor execute the surgery and upload related information to the blockchain\n        require(msg.sender==surgery.surgeon&&surgery.surgeryState==State.CONFIRMED);\n        surgery.information = information;\n        surgery.surgeryState = State.EXECUTED;\n        emit SurgeryUpdate(_surgeryId++, surgery.patient, msg.sender, State.EXECUTED);\n    }\n\n    function writeReview(uint surgeryId, string memory review)public{\n        Surgery storage surgery = _surgeries[surgeryId];\n        // After the execution, the patient can keep updating until the surgery is REVIEWED\n        require(msg.sender==surgery.patient&&(surgery.surgeryState==State.EXECUTED||surgery.surgeryState==State.REVIEWED));\n        surgery.review = review;\n        surgery.surgeryState = State.REVIEWED;\n        emit SurgeryUpdate(_surgeryId++, msg.sender, surgery.surgeon, State.REVIEWED);\n    }\n\n    function complete(uint surgeryId)public{\n        Surgery storage surgery = _surgeries[surgeryId];\n        // Once the doctor thinks the surgery is fair enough, he can close it (meaning it's valid) and take the deposit\n        require(msg.sender==surgery.surgeon&&surgery.surgeryState==State.REVIEWED);\n        surgery.surgeryState = State.CLOSED;\n        _balances[msg.sender] += surgery.payment;\n        emit SurgeryUpdate(_surgeryId++, surgery.patient, msg.sender, State.CLOSED);\n    }\n\n    // Method to review the previous surgeries\n    function viewSurgeryDetail(uint256 surgeryId)view public returns(Surgery memory){ // View the detailed information for one surgery\n        require(_surgeryAccess[msg.sender][_surgeryId]);\n        return _surgeries[surgeryId];\n    }\n\n    function viewSurgery(uint256 surgeryId)view public returns (uint256, uint256, string memory, string memory){ // View the public information for surgery\n        Surgery memory surgery = _surgeries[surgeryId];\n        require(surgery.surgeryState==State.CLOSED);\n        return (surgery.payment, surgery.medicineId, surgery.information, surgery.review);\n    }\n\n    function viewSurgeon(address surgeon)view public returns (uint256[] memory){ // View all the previous surgery with one surgeon\n        uint256[] memory surgeries;\n        uint i = 0;\n        for(uint256 surgeryId=0;surgeryId<=_surgeryId;surgeryId++){\n            Surgery memory surgery =  _surgeries[surgeryId];\n            if(surgery.surgeon==surgeon&&surgery.surgeryState==State.CLOSED)surgeries[i++] = surgeryId;\n        }\n        return surgeries;\n    }\n}\n",
  "sourcePath": "E:\\UMSI\\BlockchainAtMichigan\\BAM-FinalProject\\contracts\\MainContract.sol",
  "compiler": {
    "name": "solc",
    "version": "0.8.13+commit.abaa5c0e.Emscripten.clang"
  },
  "schemaVersion": "3.4.7",
  "updatedAt": "2022-04-09T21:23:30.168Z",
  "devdoc": {
    "kind": "dev",
    "methods": {},
    "version": 1
  },
  "userdoc": {
    "kind": "user",
    "methods": {},
    "version": 1
  }
}